S0100000646576626F6172642E73726563CD
S11300000C943E000C9450000C9450000C9450003E
S11300100C9481000C9450000C9450000C945000EB
S11300200C9450000C9450000C9450000C9450000C
S11300300C9450000C9450000C9450000C945000FC
S11300400C9450000C9450000C9450000C945000EC
S11300500C9450000C9450000C9450000C945000DC
S11300600C9450000C9450000C9450000C945000CC
S11300700C9450000C9450000C94500011241FBE9A
S1130080CFEFCDBFDFE3DEBF28E3A0E0B8E301C0DC
S11300901D92A130B207E1F70E9466000C94C100E2
S11300A00C940000E0E0FAE08381816083838FEFA9
S11300B087A386A38081846080838081816080831C
S11300C081818160818389E180A70895E0E0F4E083
S11300D088E081838583E0E2F4E081E081838289A2
S11300E08860828B82898360828BE0E4F4E0838978
S11300F08860838B0E94520084E680930038789451
S1130100FFCF1F920F920FB60F9211248F939F93DC
S113011081E796E00197F1F700C000008091480460
S113012083FF13C080910038863F08F58091003822
S1130130865F809300388091003890910038899FC1
S1130140C00111249093280A12C0809100388A308B
S113015070F0809100388550809300388091003889
S113016090910038899FC00111249093280A8FEF41
S1130170809329049F918F910F900FBE0F901F9031
S10901801895F894FFCF6E
S9030000FC
