:1000000019C020C01FC065C05AC04FC01BC01AC055
:1000100019C018C017C016C015C014C013C012C034
:1000200011C010C00FC00EC00DC00CC00BC00AC064
:1000300009C008C011241FBECFEFCDBFDFE3DEBF74
:1000400032D051C0DDCF91E080E0889F202D112477
:1000500020932C0A8F3F21F0811103C091E001C051
:100060009FEF890FE9E3F0E23197F1F700C000005C
:10007000ECCFE0E2F4E080E2858381830895E0E064
:10008000FAE08381816083838FEF87A386A38081D9
:1000900084608083808181608083818187678183A0
:1000A0000895E7DFECCFFDDFCEDF1F920F920FB692
:1000B0000F9211240F900FBE0F901F9018951F9252
:1000C0000F920FB60F9211240F900FBE0F901F903A
:1000D00018951F920F920FB60F9211240F900FBE1A
:0A00E0000F901F901895F894FFCFC1
:00000001FF
